:100000000C9462000C948A000C948A000C948A0070
:100010000C948A000C948A000C948A000C948A0038
:100020000C948A000C948A000C948A000C948A0028
:100030000C948A000C948A000C948A000C948A0018
:100040000C945C080C948A000C942A080C94040804
:100050000C948A000C948A000C948A000C948A00F8
:100060000C94A6080C948A000000000024002700CD
:100070002A0000000000250028002B0000000000DE
:1000800023002600290004040404040404040202DA
:100090000202020203030303030301020408102007
:1000A0004080010204081020010204081020000012
:1000B0000008000201000003040700000000000027
:1000C0000000C50911241FBECFEFD8E0DEBFCDBFB1
:1000D00011E0A0E0B1E0EAE7FEE102C005900D9278
:1000E000A434B107D9F723E0A4E4B1E001C01D9224
:1000F000A637B207E1F710E0C2E6D0E004C02197CE
:10010000FE010E94040FC136D107C9F70E94510AAF
:100110000C943B0F0C9400000895089580913903CE
:1001200090913A03891B990B0895AF92BF92CF9299
:10013000DF92EF92FF920F931F93CF93DF936C01A7
:100140007B018B01040F151FEB015E01AE18BF0888
:10015000C017D10759F06991D601ED91FC9101903A
:10016000F081E02DC6010995892B79F7C501DF9152
:10017000CF911F910F91FF90EF90DF90CF90BF90A4
:10018000AF900895FC01538D448D252F30E0842FCE
:1001900090E0821B930B541710F0CF9608950197AF
:1001A0000895FC01918D828D981761F0A28DAE0F9C
:1001B000BF2FB11D5D968C91928D9F5F9F73928F23
:1001C00090E008958FEF9FEF0895FC01918D828D4F
:1001D000981731F0828DE80FF11D858D90E008951C
:1001E0008FEF9FEF0895FC01918D228D892F90E074
:1001F000805C9F4F821B91098F739927089586E930
:1002000092E00E94F30021E0892B09F420E0822F84
:10021000089580E090E0892B29F00E94FF00811171
:100220000C9400000895FC01A48DA80FB92FB11DF6
:10023000A35ABF4F2C91848D90E001968F7399271C
:10024000848FA689B7892C93A089B1898C918370FA
:1002500080648C93938D848D981306C00288F389F3
:10026000E02D80818F7D80830895EF92FF920F9320
:100270001F93CF93DF93EC0181E0888F9B8D8C8D52
:1002800098131AC0E889F989808185FF15C09FB746
:10029000F894EE89FF896083E889F9898081837009
:1002A000806480839FBF81E090E0DF91CF911F91B8
:1002B0000F91FF90EF900895F62E0B8D10E00F5FD9
:1002C0001F4F0F731127E02E8C8D8E110CC00FB6AF
:1002D00007FCFACFE889F989808185FFF5CFCE0147
:1002E0000E941301F1CFEB8DEC0FFD2FF11DE35AAE
:1002F000FF4FF0829FB7F8940B8FEA89FB898081CA
:100300008062CFCFCF93DF93EC01888D8823B9F043
:10031000AA89BB89E889F9898C9185FD03C0808110
:1003200086FD0DC00FB607FCF7CF8C9185FFF2CF8D
:10033000808185FFEDCFCE010E941301E9CFDF91CF
:10034000CF910895833081F028F4813099F0823084
:10035000A9F008958730A9F08830C9F08430B1F44D
:10036000809180008F7D03C0809180008F77809383
:100370008000089584B58F7784BD089584B58F7DFE
:10038000FBCF8091B0008F778093B000089580916B
:10039000B0008F7DF9CF1F93CF93DF93282F30E0EC
:1003A000F901E255FF4F8491F901E656FF4FD491D0
:1003B000F901EA57FF4FC491CC23A9F0162F811100
:1003C0000E94A201EC2FF0E0EE0FFF1FEE58FF4F4E
:1003D000A591B4918FB7F894EC91111108C0D09504
:1003E000DE23DC938FBFDF91CF911F910895DE2B29
:1003F000F8CF0F931F93CF93DF93082F61E0809185
:1004000058030E94CB01D0E0C0E010E060E0809192
:1004100058030E94CB01C8010C2E02C09595879508
:100420000A94E2F761E080FF60E0809159030E9446
:10043000CB0161E0809158030E94CB012196C83026
:10044000D10521F7DF91CF911F910F910895DF9290
:10045000EF92FF920F931F93CF93DF9361E0809110
:1004600058030E94CB01D0E0C0E0E12C01E010E095
:1004700020915A0330E0F901E255FF4F8491F901D0
:10048000E656FF4FF490F901EA57FF4FD490DD2074
:10049000A9F081110E94A201ED2DF0E0EE0FFF1FE7
:1004A000E458FF4FA591B491EC91FE2239F0C801B8
:1004B0000C2E01C0880F0A94EAF7E82A60E08091C8
:1004C00058030E94CB0161E0809158030E94CB0148
:1004D0002196C830D10509F0CBCF8E2DDF91CF9179
:1004E0001F910F91FF90EF90DF900895CF93DF93CE
:1004F00090E0FC01E656FF4F24918A579F4FFC0184
:1005000084918823D1F090E0880F991FFC01E8596D
:10051000FF4FA591B491FC01EE58FF4FC591D491C6
:1005200061110EC09FB7F8948C91E22FE0958E2355
:100530008C932881E223E8839FBFDF91CF910895B8
:100540008FB7F894EC91E22BEC938FBFF6CF3FB7C7
:10055000F8948091890190918A01A0918B01B091CA
:100560008C0126B5A89B05C02F3F19F00196A11D4F
:10057000B11D3FBFBA2FA92F982F8827BC01CD01ED
:10058000620F711D811D911D42E0660F771F881F4C
:10059000991F4A95D1F708958F929F92AF92BF927B
:1005A000CF92DF92EF92FF926B017C010E94A70233
:1005B0004B015C01C114D104E104F104B9F00E94C3
:1005C000A702681979098A099B09683E7340810569
:1005D000910580F321E0C21AD108E108F10888EE04
:1005E000880E83E0981EA11CB11CE4CFFF90EF9011
:1005F000DF90CF90BF90AF909F908F900895EF9233
:10060000FF920F931F93CF93DF937C0110E000E0E4
:10061000C0916C03C11107C0065F1F4FE016F106C1
:1006200010F5C0E018C060E0809157030E94CB0134
:1006300062E070E080E090E00E94CC0282E00E94E4
:10064000F9010E942702D82F61E0809157030E9490
:10065000CB01D13009F78C2FDF91CF911F910F91F2
:10066000FF90EF9008956AE070E080E090E00E94D3
:10067000CC02CECFEF92FF920F931F93CF93DF93D5
:1006800020916C03222361F1062FF92E182F60E0D0
:10069000809157030E94CB0162E070E080E090E01F
:1006A0000E94CC0283E00E94F901E12EC12FDF2DD0
:1006B00061E070E080E090E00E94CC020E9427029E
:1006C00089938C2F8E19801798F361E080915703DE
:1006D000DF91CF911F910F91FF90EF900C94CB0180
:1006E000DF91CF911F910F91FF90EF90089520918E
:1006F0006501260F3327331F21323105ECF4209199
:100700002E02FC0190E080E0243069F082E0089540
:10071000A09165012191AC014B5B5E4FA40FB52FF9
:10072000B11D2C930196861798F380916501680F8F
:100730006093650180E0089581E0089510922E0293
:1007400081E080932D021092080261E082E10E9414
:10075000CB0161E083E10E94CB01E9EBF0E0808115
:100760008E7F808380818D7F808388E48093B80032
:1007700085E48093BC000895CF93DF9391E090933C
:1007800044018823B9F0C091B800D091BA0080919B
:10079000BC008A7B8093BC0060E082E10E94CB01B8
:1007A00060E083E10E94CB010E949E03D093BA00D7
:1007B000C093B800DF91CF910895CF92DF92EF926E
:1007C000FF920F931F93CF93DF93D091370381E074
:1007D000D13208F09CC0C09155020E94A7026B0163
:1007E0007C0180912E0281116CC082E080932E02E8
:1007F00081E080932D028FEF80932C0210922B02C8
:10080000D0932A02A5E3B2E0EAE0F2E080E0D81358
:100810008DC01092090280910902CC0FC82BC093A1
:10082000090280910802813009F084C01092080208
:100830000E94A7026B017C01809109028093BB009A
:100840008091300290913102A0913202B091330236
:10085000892B8A2B8B2BA1F00E94A70200913002DA
:100860001091310220913202309133026C197D09CE
:100870008E099F09061717072807390708F442C091
:100880008091BC0083FDD8CF85EC8093BC000E9492
:10089000A7026B017C0180912E02823009F44CC0CA
:1008A00080912C028F3F09F469C080912C02803224
:1008B00009F466C080912C02803309F463C084E09F
:1008C00026C08091300290913102A0913202B09105
:1008D0003302892B8A2B8B2B09F483CF0E94A7022A
:1008E0000091300210913102209132023091330296
:1008F0006C197D098E099F09061717072807390704
:1009000008F06FCF80912F020E94BC0385E0109207
:1009100038031092370310923402DF91CF911F9168
:100920000F91FF90EF90DF90CF9008959D9191935C
:100930008F5F6DCF85EEA9CF80913002909131020B
:10094000A0913202B0913302892B8A2B8B2B09F4B0
:10095000A2CF0E94A7020091300210913102209193
:100960003202309133026C197D098E099F090617F6
:1009700017072807390708F08ECFC4CF80E0C7CF0C
:1009800082E0C5CF83E0C3CF0895E0913A03809120
:100990003903E81730F4F0E0E851FE4F808190E031
:1009A00008958FEF9FEF089590913A038091390356
:1009B0002FEF3FEF981748F4E92FF0E0E851FE4F92
:1009C000208130E09F5F90933A03C9010895CF9250
:1009D000DF92EF92FF920F931F93CF93DF937C01EF
:1009E000CB018A0120913402222389F0EB016B01B3
:1009F000C40ED51ECC15DD0569F06991D701ED91C6
:100A0000FC910190F081E02DC7010995F3CF642F8F
:100A10000E947703C801DF91CF911F910F91FF9042
:100A2000EF90DF90CF900895CF93DF931F92CDB7D3
:100A3000DEB76983209134022223F9F02091370335
:100A4000203258F021E030E0FC013383228390E033
:100A500080E00F90DF91CF91089580913803E82FC7
:100A6000F0E0EB5CFD4F998190838F5F80933803BA
:100A70008093370381E090E0ECCF61E0CE010196F6
:100A80000E947703F7CF682F8BE393E00C94140553
:100A900090E080E00895CF93DF93EC0161E084E083
:100AA0000E94CB01BE0190E080E00E94CC0260E099
:100AB00084E0DF91CF910C94CB01AF92BF92CF92A3
:100AC000DF92EF92FF920F931F93CF93DF9300D0AB
:100AD00000D000D0CDB7DEB7082F5B0180916C034A
:100AE000882309F446C011E0100F60E0809157039D
:100AF0000E94CB0162E070E080E090E00E94CC02B6
:100B000081E00E94F90180E00E94F90180E00E94EA
:100B1000F9018FEF0E94F901812F0E94F901802FC6
:100B200080950E94F90184ED0E94F901C12C83EDAA
:100B3000D82E812F8150990B7C010C2D10E00E15C1
:100B40001F055CF40A5A1D4FF80180810E94F901CB
:100B5000F8018081D80EC394F0CF8D2D80950E942E
:100B6000F90180E00E94F90161E0809157030E9441
:100B7000CB01C5010E94FF02182F811113C010E0A4
:100B8000812F26960FB6F894DEBF0FBECDBFDF9142
:100B9000CF911F910F91FF90EF90DF90CF90BF907A
:100BA000AF90089566E0CE0101960E943A0346E0B8
:100BB00050E06CE071E0CE0101960E94130F892B8A
:100BC000F1F680916C038823D9F2C5010E94FF02DF
:100BD000182FD6CFCF92DF92EF92FF920F931F93F1
:100BE000CF93C82F0E94A7026B017C0180912E0237
:100BF000811164C081E080932E0280932D029FEFCB
:100C000090932C0210922B0210922A0280930902D8
:100C100080910902CC0FC82BC09309028091080271
:100C2000813009F07DC0109208020E94A7026B017A
:100C30007C01809109028093BB00809130029091E9
:100C40003102A0913202B0913302892B8A2B8B2B77
:100C5000A1F00E94A7020091300210913102209170
:100C60003202309133026C197D098E099F090617F3
:100C700017072807390708F442C08091BC0083FD9C
:100C8000D8CF85EC8093BC000E94A7026B017C0149
:100C900080912E02813009F445C080912B02811190
:100CA00063C080912B02EAE0F2E0A8EEB1E090E0B0
:100CB000981751F121912D939F5FFACF80913002C7
:100CC00090913102A0913202B0913302892B8A2B8C
:100CD0008B2B09F48BCF0E94A70200913002109158
:100CE000310220913202309133026C197D098E0954
:100CF0009F09061717072807390708F077CF809153
:100D00002F020E94BC0380E010923A0380933903C3
:100D1000CF911F910F91FF90EF90DF90CF900895AA
:100D200085EEB0CF8091300290913102A0913202D5
:100D3000B0913302892B8A2B8B2B09F4A9CF0E9407
:100D4000A7020091300210913102209132023091BD
:100D500033026C197D098E099F09061717072807AA
:100D6000390708F095CFCBCF81E09DCFCF92DF92AE
:100D7000EF92FF920F931F93CF93DF93EC0180913B
:100D80004703811114C0CE010E94EE0E182F65E0BA
:100D900070E080E090E00E94CC02812FDF91CF9143
:100DA0001F910F91FF90EF90DF90CF9008958130C9
:100DB000A1F7AE0170E060E0C0904A03D0904B0311
:100DC000E0904C03F0904D034C155D056E057F05DA
:100DD00008F054C020914803309149032330310575
:100DE00090F490914E0380933402909355021092A8
:100DF000380310923703CE010E9443050E94DD03A1
:100E000080914E0319C02131310520F50D2F077057
:100E100090914E03902B8093340290935502109240
:100E2000380310923703CE0199270E9443050E9490
:100E3000DD0380914E03802B0E94EA0590913903D7
:100E400080913A03981709F4A8CF8BE393E00E94AE
:100E5000D4049CCF2130324088F790914E03809388
:100E600034029093550210923803109237038D2F5D
:100E700090E00E944305CE019927BECF10E08DCFB0
:100E80000F931F93CF93DF93EC01162F80914703AD
:100E9000811114C0CE010E94B606181709F477C05C
:100EA000612FCE010E94F60E65E070E080E090E0D8
:100EB000DF91CF911F910F910C94CC02813009F0FA
:100EC00066C0CE01B0E0A0E001E040914A0350913D
:100ED0004B0360914C0370914D0384179507A6074F
:100EE000B70708F400E0CE010E94B606181709F40F
:100EF0004EC001114CC0809148039091490383304A
:100F00009105E0F480914E0391E090933402809338
:100F1000550210923803109237036C2F8BE393E045
:100F20000E941405612F8BE393E00E9414050E9438
:100F3000DD036AE070E080E090E0BACF8131910596
:100F400098F48D2F877090914E03892B91E09093A8
:100F50003402809355021092380310923703CE0169
:100F600099270E944305DECF81309240D8F68091C8
:100F70004E0391E09093340280935502109238030F
:100F8000109237038D2F90E00E944305E8CFDF9148
:100F9000CF911F910F91089585ED8093BC008091B2
:100FA000300290913102A0913202B0913302079643
:100FB000A11DB11D23E0B695A795979587952A9514
:100FC000D1F72091BC0024FD03C010922E02089599
:100FD000409130025091310260913202709133029F
:100FE000452B462B472B69F30097A105B10541F02E
:100FF00025E32A95F1F700000197A109B109E1CF96
:1010000080912F020C94BC031F920F920FB60F9287
:1010100011242F933F934F935F936F937F938F93FD
:101020009F93AF93BF93EF93FF9386E992E00E9463
:101030001301FF91EF91BF91AF919F918F917F919C
:101040006F915F914F913F912F910F900FBE0F9035
:101050001F9018951F920F920FB60F9211242F9385
:101060008F939F93EF93FF93E091A602F091A702D5
:101070008081E091AC02F091AD0282FD1BC09081B5
:101080008091AF028F5F8F732091B002821741F081
:10109000E091AF02F0E0EA56FD4F958F8093AF02EA
:1010A000FF91EF919F918F912F910F900FBE0F9015
:1010B0001F9018958081F4CF1F920F920FB60F9258
:1010C00011242F933F938F939F93AF93BF9380915E
:1010D0008D0190918E01A0918F01B091900130917E
:1010E000880123E0230F2D3758F50196A11DB11D6E
:1010F0002093880180938D0190938E01A0938F019E
:10110000B09390018091890190918A01A0918B0107
:10111000B0918C010196A11DB11D8093890190931E
:101120008A01A0938B01B0938C01BF91AF919F91E5
:101130008F913F912F910F900FBE0F901F90189598
:1011400026E8230F0296A11DB11DD2CF1F920F9248
:101150000FB60F9211242F933F934F935F936F938A
:101160007F938F939F93AF93BF93EF93FF93809160
:10117000B900887F803609F44AC0F0F5883209F456
:10118000A7C018F5803109F49BC0B8F4882309F48E
:10119000F9C0883009F494C0FF91EF91BF91AF91ED
:1011A0009F918F917F916F915F914F913F912F917F
:1011B0000F900FBE0F901F901895883109F488C0CA
:1011C000803251F780932C0214C0803409F49DC002
:1011D00040F48033B9F38833F9F680932C0285EC20
:1011E000B0C0803509F485C0883509F496C08834CC
:1011F00099F60E94CC07D0CF883909F48CC038F515
:10120000883729F050F4883611F0803729F683E0CA
:1012100080932E021092870157C0883809F47BC052
:10122000803919F0803809F0B7CF8091870180327A
:1012300008F071C0E091870181E08E0F80938701F3
:101240008091BB00F0E0E959FE4F80833DC0803BB8
:1012500039F0E0F4803A09F479C0883A09F09CCF7B
:1012600084E080932E021092660110926501E09155
:101270003503F091360309958091650181110FC006
:1012800081E0809365011092450109C0803C09F41A
:10129000A6CF883C09F4A3CF883B09F07DCFE0912D
:1012A000660181E08E0F80936601F0E0EB5BFE4FFC
:1012B00080818093BB00909166018091650129C077
:1012C000809109028093BB0085EC8093BC0064CFC1
:1012D00090912B0280912A02981758F5E0912B02E9
:1012E00081E08E0F80932B02F0E0E65FFD4F80815E
:1012F000E9CFE0912B0281E08E0F80932B02809149
:10130000BB00F0E0E65FFD4F808390912B0280915F
:101310002A029817C8F285E8D8CFE0912B0281E025
:101320008E0F80932B028091BB00F0E0E65FFD4FB3
:10133000808380912D0281115CCF81E0809308022F
:1013400084EA8093BC0010922E0226CF85EC809315
:10135000BC0010922E0280918701803230F4E0911F
:101360008701F0E0E959FE4F10826091870170E03B
:10137000E0913303F091340387E691E009951092F0
:1013800087010ACF10922C0234CF1F93CF93DF93A3
:10139000E6E9F2E01382128288EE93E0A0E0B0E08A
:1013A00084839583A683B78326E131E0318320834C
:1013B00025EC30E03587248724EC30E0378726871A
:1013C00020EC30E0318B208B21EC30E0338B228B12
:1013D00022EC30E0358B248B26EC30E0378B268BEB
:1013E000118E128E138E148EEBE3F3E013821282B1
:1013F00084839583A683B78388E291E09183808379
:1014000010924F03E7E4F3E080E5878380E490E007
:101410009283818380E090E2A0E0B0E083839483B4
:10142000A583B68311E0108310923A03109239031A
:1014300010923803109237030E949E038CE890E0CC
:1014400090933603809335038DE890E090933403B6
:101450008093330310926E03C7E5D3E081E1888364
:101460008EE0898380E18A838FE08B831C821D82DA
:101470001D8B1E8A61E081E10E94760261E0888115
:101480000E94CB0161E089810E94760261E08A813D
:101490000E94760260E08B81DF91CF911F910C94C6
:1014A0007602789484B5826084BD84B5816084BD01
:1014B00085B5826085BD85B5816085BD80916E00F2
:1014C000816080936E001092810080918100826023
:1014D0008093810080918100816080938100809160
:1014E00080008160809380008091B100846080934F
:1014F000B1008091B00081608093B00080917A004B
:10150000846080937A0080917A00826080937A0070
:1015100080917A00816080937A0080917A0080685F
:1015200080937A001092C100E091A602F091A70288
:10153000C2E0C083E091A202F091A3021082E09188
:10154000A402F091A5028FEC80831092AE02E0918C
:10155000AA02F091AB0286E28083E091A802F091AA
:10156000A902808180618083E091A802F091A902A4
:10157000808188608083E091A802F091A902808137
:1015800080688083E091A802F091A90280818F7D1C
:10159000808361E084E00E94760261E083E00E9443
:1015A000760260E084E00E94CB0160E083E00E946C
:1015B000CB0180916C038823B9F060E080915703E0
:1015C0000E94CB0168EE73E080E090E00E94CC02C4
:1015D000C093560268EE73E081E00E945D0561E011
:1015E000809157030E94CB0182E08093560268EEFF
:1015F00073E081E00E945D05882399F16CE086E547
:1016000092E00E943A0346E050E060E071E086E537
:1016100092E00E94130F892B21F580916C03E6E084
:10162000F0E0811102C0E7E0F0E0EA5AFD4F80816E
:1016300090E0B0E0A0E0BA2FA92F982F8827218151
:10164000822BBA2FA92F982F88272281822BBA2F7D
:10165000A92F982F88272381822B892B8A2B8B2BCC
:1016600009F4FFCF94E19093560281E080935702F2
:10167000909358028093590268EE73E084E00E94D0
:101680005D05882329F068E086E592E00E943A0330
:1016900084E08093D7018EE78093960184E690E002
:1016A0000E944B05C1E090E4692E20E6222E30E333
:1016B000332ED6E042E0742E56EAC52E51E0D52EE8
:1016C00067EAA62E61E0B62E70E0472E70E0572E36
:1016D0003AE430935602C09357021092580262E3E4
:1016E00070E083E00E945D05882399F164E186E55E
:1016F00092E00E943A0380915D02813051F5209181
:1017000062022093E00183E692E0A1EEB1E0AD0138
:1017100010E0211741F0FC013191CF01FA01319322
:10172000AF011F5FF6CF88EDE82E81E0F82EC701EC
:1017300021EE31E040E050E0511709F479C0F901A1
:1017400071919F01FC016191CF01761341E05F5FD0
:10175000F3CF1092D8011092D9011092DA011092B1
:10176000DB011092DC011092DD011092DE0164E1D8
:1017700070E080E090E00E94CC028091A80181306E
:1017800009F49BC1823009F499C28091950181309E
:10179000C9F42FB7F89480918D0190918E01A0919A
:1017A0008F01B09190012FBF80939101909392018E
:1017B000A0939301B09394017092950161E083E04E
:1017C0000E94CB0121E080919501823009F020E058
:1017D0003FB7F89480918D0190918E01A0918F0177
:1017E000B09190013FBF4091910150919201609161
:1017F000930170919401841B950BA60BB70B813458
:101800009F41A105B10540F0222331F060E083E063
:101810000E94CB01109295014114510409F458CF54
:101820000E94FF00882309F453CF0E94000050CF8C
:101830004093DF01442309F49ACF80E0811731F00F
:101840009D91F70191937F018F5FF8CF0091D701B0
:1018500086E0E6E0F1E0A5E6B3E001900D928A951E
:10186000E1F7412F50E061EE71E08DE593E00E94D9
:101870000A0F1093640360925602C093570220929D
:1018800058020093590286E0E5E6F3E0AAE5B2E0EB
:1018900001900D928A95E1F7ADE5B3E0E0E6F2E064
:1018A00080E0181721F09D9191938F5FFACF68EE39
:1018B00073E08AE0810F0E945D05882309F457CF09
:1018C0006CE086E592E00E943A0380915D0281110E
:1018D0004ECF60925602C093570230925802009346
:1018E000590268EE73E084E00E945D05882309F4E4
:1018F0005CC06AE186E592E00E943A0380915D0255
:10190000811153C080E1EEE5F2E0A7ECB1E0019077
:101910000D928A95E1F7C093C60166E371E087EC0A
:1019200091E00E94210F892B09F042C06DE371E024
:1019300087EC91E00E94210F892B41F08091CC012E
:10194000813021F47092C3018093C4018091C3015E
:101950009091C501913009F06CC0813009F06FC0E1
:101960008093A8018091CD018093B3018091D20131
:101970008093B4018091D3018093B5018091D4010B
:101980008093B6012091B5013091B601D29FC0017C
:10199000D39F900D112405969093B2018093B101CD
:1019A0008091D5018093B701E2CE1092C601DFCEBF
:1019B0008091C501C093C3018F5F8093C5018130C1
:1019C00009F58091CD01843579F484E690E00E9498
:1019D0004B056CE271E080E090E00E94CC0288EE62
:1019E00093E00E944B05A2CF843409F09FCF84E698
:1019F00090E00E944B056CE271E080E090E00E9474
:101A0000CC02E3CF84E690E00E944B0564E670E0F0
:101A100080E090E00E94CC0284E690E00E944B05BA
:101A200064E670E080E090E00E94CC0284E690E002
:101A3000D8CF7092A8011092C5011092C4018230D3
:101A400009F095CE8091D8018093B8018091D90199
:101A50008093B9018091DA018093BA018091DB0112
:101A60008093BB018091CC018093BC018091CD011A
:101A70008093BD018091CE018093BE018091CF0102
:101A80008093BF018091D0018093C0018091D101EA
:101A90008093C1018091D2018093C2012091BD0148
:101AA0003091BE01D29FC001D39F900D11240596A5
:101AB0009093B0018093AF015ACE8091B3018434EA
:101AC00009F4A9C0843509F060CE8091C40188234F
:101AD00009F45BCE6091BD018091AF019091B0019E
:101AE0000E94400765E070E080E090E00E94CC0238
:101AF0008091AF019091B0016091BE0101960E946A
:101B0000400765E070E080E090E00E94CC028091A8
:101B1000AF019091B0016091B80102960E94400718
:101B200065E070E080E090E00E94CC028091AF011F
:101B30009091B0016091B90103960E94400765E061
:101B400070E080E090E00E94CC028091AF01909123
:101B5000B0016091BA0104960E94400765E070E010
:101B600080E090E00E94CC028091AF019091B001A2
:101B70006091BB0105960E94400765E070E080E03F
:101B800090E00E94CC028091AF019091B0010E9440
:101B9000B6069091BD0189133BC08091AF01909131
:101BA000B00101960E94B6069091BE01891330C023
:101BB0008091AF019091B00102960E94B60690917B
:101BC000B801891325C08091AF019091B0010396AF
:101BD0000E94B6069091B90189131AC08091AF0195
:101BE0009091B00104960E94B6069091BA018913B3
:101BF0000FC08091AF019091B00105960E94B6068A
:101C00009091BB01891304C084EF91E00E944B05C1
:101C10001092C401BACD8091B4018230D9F08330E2
:101C200081F1813009F0B1CD0091B1011091B20183
:101C3000F12CE12C60E0C701800F911F0E9440074A
:101C4000FFEFEF1AFF0A36E0E316F10499F710925E
:101C5000B4019BCDE090B701ED9E700111248090FE
:101C6000B1019090B20110E000E0E016F10679F3C6
:101C700060E0C401800F911F0E9440070F5F1F4F5B
:101C8000F4CF8091C301823009F07FCD1092C3015F
:101C9000E090AF01F090B00110E000E060E0C8011A
:101CA0008E0D9F1D0E9440070F5F1F4F06301105CC
:101CB000A9F784E690E00E944B0567CD8091C301AF
:101CC000823009F062CD8091AF019091B0010E9405
:101CD000B6068093AE018091AF019091B00101965C
:101CE0000E94B6068093AD018091AF019091B00142
:101CF00002960E94B6068093A9018091AF0190914F
:101D0000B00103960E94B6068093AA018091AF01AC
:101D10009091B00104960E94B6068093AB01809129
:101D2000AF019091B00105960E94B6068093AC0178
:101D30002091B8019091A901291327CD2091B901D3
:101D40009091AA01291321CD2091BA019091AB0164
:101D500029131BCD9091BB01981317CD9091BD0114
:101D60008091AE01981311CD9091BE018091AD018B
:101D700098130BCD8091BF0180939A018091C0018F
:101D800080939B018091C10180939C018091C2014D
:101D900080939D01E8E9F1E0DF018FEF9D918927B4
:101DA000CA16DB06D9F78093A60180E09191890FCE
:101DB000AE16BF06D9F78093A70142E150E066E96D
:101DC00071E086E992E00E949500C093950188EC4D
:101DD00090E00E944B051092C301D7CCF999FECF39
:101DE00092BD81BDF89A992780B50895262FF9995B
:101DF000FECF1FBA92BD81BD20BD0FB6F894FA9AEE
:101E0000F99A0FBE01960895EE0FFF1F0590F49109
:101E1000E02D0994FB01DC0102C001900D924150BC
:101E20005040D8F70895FB01DC014150504030F09C
:101E30008D910190801919F40020B9F7881B990B36
:101E40000895FB0151915523A9F0BF01DC014D918B
:101E500045174111E1F759F4CD010190002049F0F7
:101E60004D9140154111C9F3FB014111EFCF81E0C4
:0A1E700090E001970895F894FFCF69
:101E7A0000FF06FAD503FFFFFFFFFFFF0000FF0088
:101E8A00FF000000000035019500C2008201F30046
:101E9A00D100E500000000001405E7044805C40469
:101EAA008E00D404C5044D415354455200534C414D
:041EBA005645000089
:00000001FF
