:020000040000FA
:100000000C9462000C948A000C948A000C948A0070
:100010000C948A000C948A000C948A000C948A0038
:100020000C948A000C948A000C948A000C948A0028
:100030000C948A000C94DC090C948A000C948A00BD
:100040000C9473080C948A000C9441080C941B08BF
:100050000C948A000C948A000C948A000C948A00F8
:100060000C94BD080C948A000000000024002700B6
:100070002A0000000000250028002B0000000000DE
:1000800023002600290004040404040404040202DA
:100090000202020203030303030301020408102007
:1000A0004080010204081020010204081020000012
:1000B0000008000201000003040700000000000027
:1000C0000000030A11241FBECFEFD8E0DEBFCDBF72
:1000D00011E0A0E0B1E0E0E6FFE102C005900D9282
:1000E000A434B107D9F723E0A4E4B1E001C01D9224
:1000F000AC37B207E1F710E0C2E6D0E004C02197C8
:10010000FE010E94770FC136D107C9F70E948F0AFE
:100110000C94AE0F0C9400000895089580913F0355
:1001200090914003891B990B0895809197019091BC
:100130009801009729F00197909398018093970177
:100140008091AC019091AD01009729F001979093B7
:10015000AD018093AC010895AF92BF92CF92DF9230
:10016000EF92FF920F931F93CF93DF936C017B016C
:100170008B01040F151FEB015E01AE18BF08C017FD
:10018000D10759F06991D601ED91FC910190F08170
:10019000E02DC6010995892B79F7C501DF91CF9133
:1001A0001F910F91FF90EF90DF90CF90BF90AF9095
:1001B0000895FC01538D448D252F30E0842F90E06D
:1001C000821B930B541710F0CF9608950197089552
:1001D000FC01918D828D981761F0A28DAE0FBF2F1B
:1001E000B11D5D968C91928D9F5F9F73928F90E071
:1001F00008958FEF9FEF0895FC01918D828D9817E0
:1002000031F0828DE80FF11D858D90E008958FEF1C
:100210009FEF0895FC01918D228D892F90E0805CE5
:100220009F4F821B91098F73992708958CE992E063
:100230000E940A0121E0892B09F420E0822F089511
:1002400080E090E0892B29F00E94160181110C9426
:1002500000000895FC01A48DA80FB92FB11DA35A69
:10026000BF4F2C91848D90E001968F739927848FD6
:10027000A689B7892C93A089B1898C9183708064F9
:100280008C93938D848D981306C00288F389E02D9A
:1002900080818F7D80830895EF92FF920F931F934B
:1002A000CF93DF93EC0181E0888F9B8D8C8D981329
:1002B0001AC0E889F989808185FF15C09FB7F89435
:1002C000EE89FF896083E889F98980818370806481
:1002D00080839FBF81E090E0DF91CF911F910F91CC
:1002E000FF90EF900895F62E0B8D10E00F5F1F4FDB
:1002F0000F731127E02E8C8D8E110CC00FB607FCEA
:10030000FACFE889F989808185FFF5CFCE010E9477
:100310002A01F1CFEB8DEC0FFD2FF11DE35AFF4FBA
:10032000F0829FB7F8940B8FEA89FB898081806205
:10033000CFCFCF93DF93EC01888D8823B9F0AA89C2
:10034000BB89E889F9898C9185FD03C0808186FD90
:100350000DC00FB607FCF7CF8C9185FFF2CF8081DF
:1003600085FFEDCFCE010E942A01E9CFDF91CF9129
:100370000895833081F028F4813099F08230A9F01B
:1003800008958730A9F08830C9F08430B1F48091A5
:1003900080008F7D03C0809180008F7780938000E4
:1003A000089584B58F7784BD089584B58F7DFBCF84
:1003B0008091B0008F778093B00008958091B00055
:1003C0008F7DF9CF1F93CF93DF93282F30E0F90172
:1003D000E255FF4F8491F901E656FF4FD491F901A0
:1003E000EA57FF4FC491CC23A9F0162F81110E9428
:1003F000B901EC2FF0E0EE0FFF1FEE58FF4FA59173
:10040000B4918FB7F894EC91111108C0D095DE2308
:10041000DC938FBFDF91CF911F910895DE2BF8CF32
:100420000F931F93CF93DF93082F61E080915E03BA
:100430000E94E201D0E0C0E010E060E080915E0345
:100440000E94E201C8010C2E02C0959587950A947E
:10045000E2F761E080FF60E080915F030E94E201CB
:1004600061E080915E030E94E2012196C830D105CF
:1004700021F7DF91CF911F910F910895DF92EF92B5
:10048000FF920F931F93CF93DF9361E080915E0300
:100490000E94E201D0E0C0E0E12C01E010E02091F8
:1004A000600330E0F901E255FF4F8491F901E6560F
:1004B000FF4FF490F901EA57FF4FD490DD20A9F0E7
:1004C00081110E94B901ED2DF0E0EE0FFF1FE458FD
:1004D000FF4FA591B491EC91FE2239F0C8010C2E8A
:1004E00001C0880F0A94EAF7E82A60E080915E0371
:1004F0000E94E20161E080915E030E94E201219688
:10050000C830D10509F0CBCF8E2DDF91CF911F914F
:100510000F91FF90EF90DF900895CF93DF9390E0DD
:10052000FC01E656FF4F24918A579F4FFC018491AE
:100530008823D1F090E0880F991FFC01E859FF4F04
:10054000A591B491FC01EE58FF4FC591D491611172
:100550000EC09FB7F8948C91E22FE0958E238C9378
:100560002881E223E8839FBFDF91CF9108958FB761
:10057000F894EC91E22BEC938FBFF6CF3FB7F89451
:1005800080918D0190918E01A0918F01B091900189
:1005900026B5A89B05C02F3F19F00196A11DB11DDE
:1005A0003FBFBA2FA92F982F8827BC01CD01620F1A
:1005B000711D811D911D42E0660F771F881F991FD5
:1005C0004A95D1F708958F929F92AF92BF92CF92A2
:1005D000DF92EF92FF926B017C010E94BE024B0101
:1005E0005C01C114D104E104F104B9F00E94BE021F
:1005F000681979098A099B09683E7340810591054C
:1006000080F321E0C21AD108E108F10888EE880ED3
:1006100083E0981EA11CB11CE4CFFF90EF90DF9007
:10062000CF90BF90AF909F908F900895EF92FF92E0
:100630000F931F93CF93DF937C0110E000E0C091F4
:100640007203C11107C0065F1F4FE016F10610F5D7
:10065000C0E018C060E080915D030E94E20162E0AA
:1006600070E080E090E00E94E30282E00E941002CD
:100670000E943E02D82F61E080915D030E94E2015A
:10068000D13009F78C2FDF91CF911F910F91FF90FF
:10069000EF9008956AE070E080E090E00E94E3024D
:1006A000CECFEF92FF920F931F93CF93DF932091C2
:1006B0007203222361F1062FF92E182F60E080913A
:1006C0005D030E94E20162E070E080E090E00E9441
:1006D000E30283E00E941002E12EC12FDF2D61E0D2
:1006E00070E080E090E00E94E3020E943E02899365
:1006F0008C2F8E19801798F361E080915D03DF9154
:10070000CF911F910F91FF90EF900C94E201DF9138
:10071000CF911F910F91FF90EF9008952091650167
:10072000260F3327331F21323105ECF42091340298
:10073000FC0190E080E0243069F082E00895A0910F
:1007400065012191AC014B5B5E4FA40FB52FB11D2C
:100750002C930196861798F380916501680F60933A
:10076000650180E0089581E008951092340281E0EF
:100770008093330210920E0261E082E10E94E20156
:1007800061E083E10E94E201E9EBF0E080818E7F8D
:10079000808380818D7F808388E48093B80085E4A6
:1007A0008093BC000895CF93DF9391E09093440130
:1007B0008823B9F0C091B800D091BA008091BC00F4
:1007C0008A7B8093BC0060E082E10E94E20160E0ED
:1007D00083E10E94E2010E94B503D093BA00C09366
:1007E000B800DF91CF910895CF92DF92EF92FF9200
:1007F0000F931F93CF93DF93D0913D0381E0D132CC
:1008000008F09CC0C0915B020E94BE026B017C019B
:100810008091340281116CC082E08093340281E0C7
:10082000809333028FEF8093320210923102D09383
:100830003002ABE3B2E0E0E1F2E080E0D8138DC03B
:1008400010920F0280910F02CC0FC82BC0930F02A1
:1008500080910E02813009F084C010920E020E9435
:10086000BE026B017C0180910F028093BB008091DE
:10087000360290913702A0913802B0913902892B4B
:100880008A2B8B2BA1F00E94BE02009136021091A0
:10089000370220913802309139026C197D098E0996
:1008A0009F09061717072807390708F442C08091E7
:1008B000BC0083FDD8CF85EC8093BC000E94BE02B3
:1008C0006B017C0180913402823009F44CC080912C
:1008D00032028F3F09F469C080913202803209F4FC
:1008E00066C080913202803309F463C084E026C080
:1008F0008091360290913702A0913802B09139026E
:10090000892B8A2B8B2B09F483CF0E94BE02009186
:1009100036021091370220913802309139026C1959
:100920007D098E099F09061717072807390708F060
:100930006FCF809135020E94D30385E010923E0371
:1009400010923D0310923A02DF91CF911F910F91C7
:10095000FF90EF90DF90CF9008959D9191938F5FDE
:100960006DCF85EEA9CF8091360290913702A0918C
:100970003802B0913902892B8A2B8B2B09F4A2CF34
:100980000E94BE0200913602109137022091380277
:10099000309139026C197D098E099F0906171707D6
:1009A0002807390708F08ECFC4CF80E0C7CF82E098
:1009B000C5CF83E0C3CF0895E091400380913F030A
:1009C000E81730F4F0E0E251FE4F808190E00895A6
:1009D0008FEF9FEF08959091400380913F032FEF99
:1009E0003FEF981748F4E92FF0E0E251FE4F2081E5
:1009F00030E09F5F90934003C9010895CF92DF924A
:100A0000EF92FF920F931F93CF93DF937C01CB0163
:100A10008A0120913A02222389F0EB016B01C40E76
:100A2000D51ECC15DD0569F06991D701ED91FC91DA
:100A30000190F081E02DC7010995F3CF642F0E944A
:100A40008E03C801DF91CF911F910F91FF90EF901E
:100A5000DF90CF900895CF93DF931F92CDB7DEB78D
:100A6000698320913A022223F9F020913D0320323C
:100A700058F021E030E0FC013383228390E080E0F5
:100A80000F90DF91CF91089580913E03E82FF0E021
:100A9000E55CFD4F998190838F5F80933E03809347
:100AA0003D0381E090E0ECCF61E0CE0101960E9431
:100AB0008E03F7CF682F81E493E00C942B0590E030
:100AC00080E00895CF93DF93EC0161E084E00E9421
:100AD000E201BE0190E080E00E94E30260E084E079
:100AE000DF91CF910C94E201AF92BF92CF92DF924F
:100AF000EF92FF920F931F93CF93DF9300D000D01C
:100B000000D0CDB7DEB7082F5B0180917203882338
:100B100009F446C011E0100F60E080915D030E946F
:100B2000E20162E070E080E090E00E94E30281E098
:100B30000E94100280E00E94100280E00E941002D9
:100B40008FEF0E941002812F0E941002802F80954B
:100B50000E94100284ED0E941002C12C83EDD82E59
:100B6000812F8150990B7C010C2D10E00E151F0573
:100B70005CF4045A1D4FF80180810E941002F801B4
:100B80008081D80EC394F0CF8D2D80950E941002E5
:100B900080E00E94100261E080915D030E94E2010A
:100BA000C5010E941603182F811113C010E0812F78
:100BB00026960FB6F894DEBF0FBECDBFDF91CF9162
:100BC0001F910F91FF90EF90DF90CF90BF90AF906B
:100BD000089566E0CE0101960E94510346E050E080
:100BE0006CE071E0CE0101960E94860F892BF1F630
:100BF000809172038823D9F2C5010E941603182F31
:100C0000D6CFCF92DF92EF92FF920F931F93CF93A5
:100C1000C82F0E94BE026B017C01809134028111B9
:100C200064C081E080933402809333029FEF9093FD
:100C30003202109231021092300280930F028091A2
:100C40000F02CC0FC82BC0930F0280910E0281308F
:100C500009F07DC010920E020E94BE026B017C0161
:100C600080910F028093BB008091360290913702F1
:100C7000A0913802B0913902892B8A2B8B2BA1F0DD
:100C80000E94BE0200913602109137022091380274
:100C9000309139026C197D098E099F0906171707D3
:100CA0002807390708F442C08091BC0083FDD8CFE3
:100CB00085EC8093BC000E94BE026B017C01809198
:100CC0003402813009F445C080913102811163C042
:100CD00080913102E0E1F2E0AEEEB1E090E09817F1
:100CE00051F121912D939F5FFACF8091360290911F
:100CF0003702A0913802B0913902892B8A2B8B2BB5
:100D000009F48BCF0E94BE02009136021091370287
:100D100020913802309139026C197D098E099F09A2
:100D2000061717072807390708F077CF8091350293
:100D30000E94D30380E01092400380933F03CF9141
:100D40001F910F91FF90EF90DF90CF90089585EE67
:100D5000B0CF8091360290913702A0913802B091C5
:100D60003902892B8A2B8B2B09F4A9CF0E94BE0252
:100D700000913602109137022091380230913902E9
:100D80006C197D098E099F0906171707280739076F
:100D900008F095CFCBCF81E09DCFCF92DF92EF923D
:100DA000FF920F931F93CF93DF93EC0180914D033C
:100DB000811114C0CE010E94610F182F65E070E010
:100DC00080E090E00E94E302812FDF91CF911F919C
:100DD0000F91FF90EF90DF90CF9008958130A1F7B1
:100DE000AE0170E060E0C0905003D0905103E090FD
:100DF0005203F09053034C155D056E057F0508F016
:100E000054C020914E0330914F032330310590F4AC
:100E10009091540380933A0290935B0210923E03A8
:100E200010923D03CE010E945A050E94F403809166
:100E3000540319C02131310520F50D2F0770909111
:100E40005403902B80933A0290935B0210923E03DE
:100E500010923D03CE0199270E945A050E94F40387
:100E600080915403802B0E94010690913F03809152
:100E70004003981709F4A8CF81E493E00E94EB04A3
:100E80009CCF2130324088F79091540380933A02EE
:100E900090935B0210923E0310923D038D2F90E0E1
:100EA0000E945A05CE019927BECF10E08DCF0F9337
:100EB0001F93CF93DF93EC01162F80914D03811187
:100EC00014C0CE010E94CD06181709F477C0612F17
:100ED000CE010E94690F65E070E080E090E0DF9154
:100EE000CF911F910F910C94E302813009F066C0FD
:100EF000CE01B0E0A0E001E04091500350915103D9
:100F0000609152037091530384179507A607B707A2
:100F100008F400E0CE010E94CD06181709F44EC077
:100F200001114CC080914E0390914F038330910585
:100F3000E0F48091540391E090933A0280935B0235
:100F400010923E0310923D036C2F81E493E00E94C7
:100F50002B05612F81E493E00E942B050E94F4038E
:100F60006AE070E080E090E0BACF8131910598F4BA
:100F70008D2F877090915403892B91E090933A02C2
:100F800080935B0210923E0310923D03CE0199279D
:100F90000E945A05DECF81309240D8F680915403EA
:100FA00091E090933A0280935B0210923E0310927C
:100FB0003D038D2F90E00E945A05E8CFDF91CF913D
:100FC0001F910F91089585ED8093BC0080913602AA
:100FD00090913702A0913802B09139020796A11D75
:100FE000B11D23E0B695A795979587952A95D1F7DA
:100FF0002091BC0024FD03C010923402089540915A
:101000003602509137026091380270913902452BB7
:10101000462B472B69F30097A105B10541F025E365
:101020002A95F1F700000197A109B109E1CF80915C
:1010300035020C94D3031F920F920FB60F92112416
:101040002F933F934F935F936F937F938F939F93D0
:10105000AF93BF93EF93FF938CE992E00E942A0134
:10106000FF91EF91BF91AF919F918F917F916F9180
:101070005F914F913F912F910F900FBE0F901F9056
:1010800018951F920F920FB60F9211242F938F93E2
:101090009F93EF93FF93E091AC02F091AD028081BA
:1010A000E091B202F091B30282FD1BC09081809169
:1010B000B5028F5F8F732091B602821741F0E091E5
:1010C000B502F0E0E456FD4F958F8093B502FF9195
:1010D000EF919F918F912F910F900FBE0F901F90C6
:1010E00018958081F4CF1F920F920FB60F921124A2
:1010F0002F933F938F939F93AF93BF9380918901D9
:1011000090918A01A0918B01B0918C01309188015E
:1011100023E0230F2D3758F50196A11DB11D209313
:1011200088018093890190938A01A0938B01B093E9
:101130008C0180918D0190918E01A0918F01B091D1
:1011400090010196A11DB11D80938D0190938E0198
:10115000A0938F01B0939001BF91AF919F918F9118
:101160003F912F910F900FBE0F901F90189526E87A
:10117000230F0296A11DB11DD2CF1F920F920FB661
:101180000F9211242F933F934F935F936F937F930D
:101190008F939F93AF93BF93EF93FF938091B90089
:1011A000887F803609F44AC0F0F5883209F4A7C078
:1011B00018F5803109F49BC0B8F4882309F4F9C00C
:1011C000883009F494C0FF91EF91BF91AF919F9146
:1011D0008F917F916F915F914F913F912F910F90E0
:1011E0000FBE0F901F901895883109F488C0803287
:1011F00051F78093320214C0803409F49DC040F44A
:101200008033B9F38833F9F68093320285ECB0C0AD
:10121000803509F485C0883509F496C0883499F67C
:101220000E94E307D0CF883909F48CC038F588379D
:1012300029F050F4883611F0803729F683E0809346
:1012400034021092870157C0883809F47BC0803976
:1012500019F0803809F0B7CF80918701803208F00B
:1012600071C0E091870181E08E0F809387018091AA
:10127000BB00F0E0E959FE4F80833DC0803B39F070
:10128000E0F4803A09F479C0883A09F09CCF84E010
:10129000809334021092660110926501E0913B0345
:1012A000F0913C0309958091650181110FC081E0A7
:1012B000809365011092450109C0803C09F4A6CFD6
:1012C000883C09F4A3CF883B09F07DCFE09166010B
:1012D00081E08E0F80936601F0E0EB5BFE4F808132
:1012E0008093BB00909166018091650129C0809137
:1012F0000F028093BB0085EC8093BC0064CF90917B
:10130000310280913002981758F5E091310281E066
:101310008E0F80933102F0E0E05FFD4F8081E9CFD6
:10132000E091310281E08E0F809331028091BB0009
:10133000F0E0E05FFD4F80839091310280913002B8
:101340009817C8F285E8D8CFE091310281E08E0F7E
:10135000809331028091BB00F0E0E05FFD4F80831D
:101360008091330281115CCF81E080930E0284EA88
:101370008093BC001092340226CF85EC8093BC0091
:101380001092340280918701803230F4E09187011D
:10139000F0E0E959FE4F10826091870170E0E09122
:1013A0003903F0913A0387E691E00995109287019D
:1013B0000ACF1092320234CF1F920F920FB60F92C3
:1013C00011242F933F934F935F936F937F938F934A
:1013D0009F93AF93BF93EF93FF93E0919501F091AB
:1013E00096010995FF91EF91BF91AF919F918F91D8
:1013F0007F916F915F914F913F912F910F900FBE11
:101400000F901F9018951F93CF93DF93ECE9F2E0B4
:101410001382128288EE93E0A0E0B0E0848395838B
:10142000A683B78326E131E03183208325EC30E0C9
:101430003587248724EC30E03787268720EC30E09E
:10144000318B208B21EC30E0338B228B22EC30E08F
:10145000358B248B26EC30E0378B268B118E128E49
:10146000138E148EE1E4F3E0138212828483958359
:10147000A683B78388E291E091838083109255031D
:10148000EDE4F3E080E5878380E490E0928381835C
:1014900080E090E2A0E0B0E083839483A583B683EC
:1014A00011E010831092400310923F0310923E030C
:1014B00010923D030E94B5038CE890E090933C03AA
:1014C00080933B038DE890E090933A038093390337
:1014D00010927403CDE5D3E081E188838EE08983A7
:1014E00080E18A838FE08B831C821D821D8B1E8A84
:1014F00061E081E10E948D0261E088810E94E20149
:1015000061E089810E948D0261E08A810E948D02E2
:1015100060E08B81DF91CF911F910C948D027894C4
:1015200084B5826084BD84B5816084BD85B58260E8
:1015300085BD85B5816085BD80916E008160809399
:101540006E00109281008091810082608093810002
:101550008091810081608093810080918000816012
:10156000809380008091B10084608093B10080916D
:10157000B00081608093B00080917A008460809395
:101580007A0080917A00826080937A0080917A005C
:10159000816080937A0080917A00806880937A00DD
:1015A0001092C100E091AC02F091AD02C2E0C083A4
:1015B000E091A802F091A9021082E091AA02F091B4
:1015C000AB028FEC80831092B402E091B002F091F4
:1015D000B10286E28083E091AE02F091AF02808199
:1015E00080618083E091AE02F091AF0280818860DB
:1015F0008083E091AE02F091AF02808180688083A9
:10160000E091AE02F091AF0280818F7D80831092D5
:10161000800080E18093810084E0809393018FB704
:1016200080939401F89482E19AE7909392018093D9
:1016300091019093870080938600809194018FBFE1
:1016400080918100887F809381009091810020911A
:101650009301922B9093810085E990E090939601FD
:101660008093950181E080936F0080918100822BAF
:101670008093810061E084E00E948D0261E083E05C
:101680000E948D0260E084E00E94E20160E083E05D
:101690000E94E201809172038823B9F060E080919A
:1016A0005D030E94E20168EE73E080E090E00E943A
:1016B000E302C0935C0268EE73E081E00E9474056F
:1016C00061E080915D030E94E20182E080935C0210
:1016D00068EE73E081E00E947405882399F16CE064
:1016E0008CE592E00E94510346E050E060E071E03A
:1016F0008CE592E00E94860F892B21F58091720380
:10170000E6E0F0E0811102C0E7E0F0E0E45AFD4FCE
:10171000808190E0B0E0A0E0BA2FA92F982F882711
:101720002181822BBA2FA92F982F88272281822BE3
:10173000BA2FA92F982F88272381822B892B8A2BB8
:101740008B2B09F4FFCF94E190935C0281E08093AE
:101750005D0290935E0280935F0268EE73E084E026
:101760000E947405882329F068E08CE592E00E94CD
:10177000510384E08093DD018EE78093990184E634
:1017800090E00E9462057724739490E4492E26E04D
:10179000522E32E0632ECEE1D0E04AEAC42E41E080
:1017A000D42E58E0852E912C60E0262E60E0362E57
:1017B0008AE480935C0270925D0210925E0262E3A2
:1017C00070E083E00E947405882399F164E18CE560
:1017D00092E00E94510380916302813051F5209183
:1017E00068022093E60189E692E0A7EEB1E0AD0140
:1017F00010E0211741F0FC013191CF01FA01319342
:10180000AF011F5FF6CF8EEDE82E81E0F82EC70105
:1018100027EE31E040E050E0511709F44AC0F901E9
:1018200071919F01FC016191CF01761341E05F5FEF
:10183000F3CF1092DE011092DF011092E0011092BE
:10184000E1011092E2011092E3011092E40164E1DF
:1018500070E080E090E00E94E3028091AE01813070
:1018600009F471C1823009F49BC28091AB018130CF
:1018700051F461E083E00E94E2019092980180922D
:1018800097011092AB018091970190919801892B5B
:1018900021F460E083E00E94E2012114310409F4A4
:1018A00087CF0E941601882309F482CF0E9400008E
:1018B0007FCF4093E501442351F280E0811731F05E
:1018C0009D91F70191937F018F5FF8CF0091DD012A
:1018D00086E0E6E0F1E0ABE6B3E001900D928A9598
:1018E000E1F7412F50E067EE71E083E693E00E945C
:1018F0007D0F10936A0340925C0270925D02F0E6E5
:10190000F0935E0200935F0286E0EBE6F3E0A0E670
:10191000B2E001900D928A95E1F7A3E6B3E0E6E626
:10192000F2E080E0181721F09D9191938F5FFACF3C
:1019300068EE73E08AE0810F0E947405882309F441
:1019400086CF6CE08CE592E00E94510380916302A7
:1019500081117DCF40925C0270925D0280E38093A2
:101960005E0200935F0268EE73E084E00E947405FB
:10197000882309F45CC06AE18CE592E00E9451037F
:1019800080916302811153C080E1E4E6F2E0ADECA6
:10199000B1E001900D928A95E1F77092CC0166E377
:1019A00071E08DEC91E00E94940F892B09F042C008
:1019B0006DE371E08DEC91E00E94940F892B41F072
:1019C0008091D201813021F46092C9018093CA01D3
:1019D0008091C9019091CB01913009F070C08130A4
:1019E00009F073C08093AE018091D3018093B90157
:1019F0008091D8018093BA018091D9018093BB0175
:101A00008091DA018093BC012091BB013091BC012F
:101A1000529EC001539E900D112405969093B801DB
:101A20008093B7018091DB018093BD0110CF1092AC
:101A3000CC010DCF8091CB017092C9018F5F809353
:101A4000CB01813029F5D093AD01C093AC018091D9
:101A5000D301843579F484E690E00E9462056CE25B
:101A600071E080E090E00E94E30288EE93E00E9443
:101A700062059ECF843409F09BCF84E690E00E94FB
:101A800062056CE271E080E090E00E94E302E3CF47
:101A900084E690E00E94620564E670E080E090E0F9
:101AA0000E94E30284E690E00E94620564E670E032
:101AB00080E090E00E94E30284E690E0D8CF60925C
:101AC000AE011092CB011092CA01823009F0BFCE54
:101AD0008091DE018093BE018091DF018093BF0180
:101AE0008091E0018093C0018091E1018093C10168
:101AF0008091D2018093C2018091D3018093C30170
:101B00008091D4018093C4018091D5018093C50157
:101B10008091D6018093C6018091D7018093C7013F
:101B20008091D8018093C8012091C3013091C401F4
:101B3000529EC001539E900D112405969093B601BC
:101B40008093B50184CE8091B901843409F4ADC08D
:101B5000843509F0CDC08091CA01882309F4C8C03A
:101B60006091C3018091B5019091B6010E94570721
:101B700065E070E080E090E00E94E3028091B501B2
:101B80009091B6016091C40101960E94570765E0EB
:101B900070E080E090E00E94E3028091B5019091B6
:101BA000B6016091BE0102960E94570765E070E0A1
:101BB00080E090E00E94E3028091B5019091B6012F
:101BC0006091BF0103960E94570765E070E080E0D6
:101BD00090E00E94E3028091B5019091B60160917E
:101BE000C00104960E94570765E070E080E090E035
:101BF0000E94E3028091B5019091B6016091C1010C
:101C000005960E94570765E070E080E090E00E9432
:101C1000E3028091B5019091B6010E94CD069091AA
:101C2000C30189133BC08091B5019091B601019623
:101C30000E94CD069091C401891330C08091B501F6
:101C40009091B60102960E94CD069091BE01891333
:101C500025C08091B5019091B60103960E94CD06F2
:101C60009091BF0189131AC08091B5019091B6017E
:101C700004960E94CD069091C00189130FC08091F7
:101C8000B5019091B60105960E94CD069091C101D3
:101C9000891304C084EF91E00E946205D093AD01E6
:101CA000C093AC011092CA0123C08091BA01823066
:101CB00009F446C0833009F45AC08130C9F4009158
:101CC000B7011091B801F12CE12C60E0C8018E0D34
:101CD0009F1D0E9457079FEFE91AF90AE6E0EE16EA
:101CE000F10499F71092BA01D093AD01C093AC0101
:101CF0008091AC019091AD01892B09F0B6CD609235
:101D0000AE011092CB011092AB011092C90184E692
:101D100090E00E94620564E670E080E090E00E943E
:101D2000E30284E690E00E94620564E670E080E0F1
:101D300090E00E94E30284E690E00E94620595CD67
:101D4000E090BD01E59C70011124A090B701B09016
:101D5000B80110E000E0E016F10621F260E0C501F4
:101D6000800F911F0E9457070F5F1F4FF4CF809184
:101D7000CA01882309F4BCCFE090B501F090B60108
:101D800010E000E060E0C8018E0D9F1D0E94570723
:101D90000F5F1F4F06301105A9F784E690E07CCF56
:101DA0008091C901823009F060CD8091B501909198
:101DB000B6010E94CD068093B4018091B501909147
:101DC000B60101960E94CD068093B3018091B501C2
:101DD0009091B60102960E94CD068093AF0180914A
:101DE000B5019091B60103960E94CD068093B00193
:101DF0008091B5019091B60104960E94CD06809322
:101E0000B1018091B5019091B60105960E94CD0671
:101E10008093B2012091BE019091AF01291325CD8D
:101E20002091BF019091B00129131FCD2091C001D5
:101E30009091B101291319CD9091C101981315CD3D
:101E40009091C3018091B40198130FCD9091C4017A
:101E50008091B301981309CD8091C50180939D01B4
:101E60008091C60180939E018091C70180939F015C
:101E70008091C8018093A001EBE9F1E0DF018FEFD1
:101E80009D91892791E0A93AB907D1F78093A901DB
:101E900080E09191890FCE16DF06D9F78093AA01D1
:101EA00042E150E069E971E08CE992E00E94AC0007
:101EB0007092AB0188EC90E00E9462051092C9011B
:101EC000D4CCF999FECF92BD81BDF89A992780B5FF
:101ED0000895262FF999FECF1FBA92BD81BD20BD6E
:101EE0000FB6F894FA9AF99A0FBE01960895EE0F7C
:101EF000FF1F0590F491E02D0994FB01DC0102C065
:101F000001900D9241505040D8F70895FB01DC013B
:101F10004150504030F08D910190801919F400200B
:101F2000B9F7881B990B0895FB0151915523A9F02E
:101F3000BF01DC014D9145174111E1F759F4CD0185
:101F40000190002049F04D9140154111C9F3FB016A
:101F50004111EFCF81E090E001970895F894FFCF11
:101F600000FF06FAD503FFFFFFFFFFFF0000FF00A1
:101F7000FF00000000004C01AC00D90099010A01EB
:101F8000E800FC00000000002B05FE045F05DB04F8
:101F90008E00EB04DC044D415354455200534C4138
:101FA00056450000FFFFFFFFFFFFFFFFFFFFFFFFA2
:101FB000FFFFFFFFFFFFFFFFFFFFFFFFFFFFFFFF31
:101FC000FFFFFFFFFFFFFFFFFFFFFFFFFFFFFFFF21
:101FD000FFFFFFFFFFFFFFFFFFFFFFFFFFFFFFFF11
:101FE000FFFFFFFFFFFFFFFFFFFFFFFFFFFFFFFF01
:00000001FF
